:020000040800F2
:10000000101C012081020008872600083524000802
:1000100085260008C1050008892C000800000000A2
:10002000000000000000000000000000C101000806
:10003000A9060008000000001D0200080D270008A6
:100040009B0200089B0200089B0200089B0200081C
:100050009B0200089B0200089B0200089B0200080C
:100060009B0200089B0200089B0200089B020008FC
:100070009B0200089B0200089B0200089B020008EC
:100080009B0200089B0200089B0200089B020008DC
:100090009B0200089B0200089B0200089B020008CC
:1000A0009B0200089B0200089B0200089B020008BC
:1000B0009B0200089B0200089B0200089B020008AC
:1000C0009B0200089B0200089B0200089B0200089C
:1000D0009B020008192C00089B0200089B020008E4
:1000E0009B0200089B0200089B0200089B0200087C
:1000F0009B0200089B0200089B0200089B0200086C
:100100009B0200089B0200089B0200089B0200085B
:100110009B0200089B0200089B020008F1270008D0
:100120009B0200089B020008F90500089B020008DA
:100130009B020008FD0600089B0200089B020008C5
:100140009B0200089B0200089B0200089B0200081B
:100150009B0200089B0200089B0200089B0200080B
:100160009B0200089B0200089B0200089B020008FB
:100170009B0200089B0200089B0200080000000090
:100180009B0200089B0200089B0200089B020008DB
:100190009B0200089B0200089B0200089B020008CB
:1001A0009B0200089B0200089B020008DFF80CD0AD
:1001B00000F07AF900480047D9770008101C0120A8
:1001C0002C4B19680868B0E8F04F80F30988BFF33A
:1001D0006F8F4FF0000080F311887047000000001F
:1001E00008480068006880F308884FF0000080F33A
:1001F000148862B661B6BFF34F8FBFF36F8F00DF15
:1002000000BF00BF08ED00E0DFF80C00016841F41A
:1002100070010160704700BF88ED00E0EFF30980D6
:10022000BFF36F8F134B1A681EF0100F08BF20ED3D
:10023000108A20E9F04F106009B44FF0500080F3AD
:100240001188BFF34F8FBFF36F8F13F021FA4FF078
:10025000000080F3118809BC19680868B0E8F04F05
:100260001EF0100F08BFB0EC108A80F30988BFF3AE
:100270006F8F704744000020EFF305807047000047
:100280000648804706480047FEE7FEE7FEE7FEE730
:10029000FEE7FEE7FEE7FEE7FEE7FEE7D5270008FC
:1002A000AD0100082DE9F05F0546002092469B460F
:1002B00088460646814640241BE02846414647467C
:1002C000224600F0A8F853465A46C01A914110D36E
:1002D00011461846224600F08FF82D1A67EB0108E8
:1002E0004F4622460120002100F086F817EB000956
:1002F0004E41201EA4F10104DFDC484631462A4667
:100300004346BDE8F09F00000048704720480108C0
:100310000649074A0868504343F23902104408600E
:10032000400870470149086070470000A0010020A4
:100330006D4EC64110B5431A934209D283188818EE
:1003400003E010F8011D03F8011D521EF9D210BD83
:1003500040EA01039B0703D009E008C9121F08C047
:10036000042AFAD203E011F8013B00F8013B521EC7
:10037000F9D210BDD2B201E000F8012B491EFBD228
:1003800070470022F6E710B513460A4604461946A0
:10039000FFF7F0FF204610BD30B5044600200346AD
:1003A00000E05B1C934203D2E05CCD5C401BF8D0C4
:1003B00030BD70B5064602F089FC046805460A2285
:1003C0000021304600F037F82C6070BD30B50B4688
:1003D000014600202022012409E021FA02F59D4275
:1003E00005D303FA02F5491B04FA02F52844151E49
:1003F000A2F10102F1DC30BD202A04DB203A00FA30
:1004000002F1002070479140C2F1200320FA03F36B
:10041000194390407047202A04DB203A21FA02F069
:100420000021704721FA02F3D040C2F1200291402E
:100430000843194670472DE9F04791460F4680461C
:100440000446002614F8015B2DB1FFF75DFF00683C
:10045000405DC007F6D12B2D02D02D2D18D0641E83
:100460004A463946204600F031F827B13968A142A2
:1004700001D1C7F8008071054FF002040BD540424E
:10048000002803DD02F022FC0460A007BDE8F0872D
:1004900046F48066E4E70028F8DA02F017FC04600E
:1004A0006FF00040F2E70000064C074D06E0E06800
:1004B00040F0010394E8070098471034AC42F6D3AB
:1004C000FFF778FE5C4901087C4901082DE9F05FDF
:1004D00082460078002715468B460AF10104B9468A
:1004E000302801D09DB113E014F8010B01277828C2
:1004F00003D0582801D045B10AE00DB1102D07D125
:100500000027102514F8010B02E0082500E00A2559
:100510000026B0460EE005FB080005FB06F10127AA
:1005200001EB10461FFA80F8B6F5803F00D3B946BC
:1005300014F8010B294600F018F80028EBDABBF19B
:10054000000F05D00FB1641E00E05446CBF8004008
:10055000B9F1000F06D002F0B9FB02210160C81EFC
:10056000BDE8F09F48EA0640FAE73A2800D2303862
:1005700020F02002412A01D3A2F13700884201D3A2
:100580004FF0FF30704730B58C1810F8012B12F087
:100590000F0301D110F8013B120906D110F8012B0D
:1005A00003E010F8015B01F8015B5B1EF9D101E08B
:1005B00001F8013B521EFBD1A142E6D3002030BD21
:1005C000FEE70000017812290BD14178342908D1C7
:1005D000417AAB2905D1817ACD2902D10079012850
:1005E00002D102A002F052BB70470000D6B8C1EEA3
:1005F000B4EDCEF30D0A0000014800F075B900001B
:10060000F001002001681823CAB2103AB2FBF3F2DD
:10061000054B6FF30901032A9B5CC36500D9091DD3
:100620008165084670470000DC45010810B50146A9
:1006300000208B698A6A4FF0C07453B1B3F5005F34
:1006400015D072B1012A0CD0022A0AD0032A09D18E
:1006500004E01AB1012A06D0022A03D1C96AC901ED
:1006600000D5012010BDC96AA142FAD010BD002AF0
:10067000F7D0012AF2D0022AF3D0032AF3D010BD1A
:1006800030B50468256825F480252560046863601A
:100690008368402B036803D099600068C26030BD56
:1006A0009A600068C16030BD70470000064908B517
:1006B00009684FF4FA52B1FBF2F14143009100BFD7
:1006C000491E0091FBD208BD4000002038B5044609
:1006D000006800F58050816941F4801181612068D3
:1006E00000F58050806900900120FFF7DFFF20684F
:1006F000009900F58050816138BD0000014800F08C
:10070000CABB0000303300202DE9F041044621B17E
:100710004FF40060E060C000A060E06900250028A0
:1007200061D028462368402619683A4A1140D4E926
:1007300002273A43024342F40070084318602068DD
:100740000768012000F042FA2068076020684660D0
:1007500020684668012000F039FA20684660206869
:1007600085602068C560216888694FF64172104035
:1007700040F08000886120688669012000F026FA38
:10078000206886612068C5612068C569012000F085
:100790001DFA2068C561226802F5805290691E49E1
:1007A00008401E4901439161206800F58050856929
:1007B000012000F00BFA206800F580508561206868
:1007C000174900F580500160206800F580500568E9
:1007D000012000F0FBF9206800F580500560A06959
:1007E000012803D009E04FF480609BE7206800F502
:1007F0008050C1690B4A1143C16160690A4982880E
:100800000A640278D0F8010042EA00204864BDE89A
:10081000F08100000F8120FF233FDEF8040020025A
:100820008020C102400001000080024072B6FEE755
:100830002DE9F0410446876D00F05CFF064694F810
:1008400035000025022806D08020606584F83450E9
:100850000120BDE8F0812068016821F016010160E7
:100860002068416921F080014161206C08B9A06CC9
:1008700020B12068016821F008010160206801684A
:1008800021F0010101600BE000F034FF801B05281E
:1008900006D92020606504F8345F03206070D8E733
:1008A00020680068C007EFD194F85C103F208840B2
:1008B000B86004F8345F012060700020C9E790F848
:1008C0003510022903D080214165012070470521A0
:1008D00080F835100068016821F0010101600020F6
:1008E0007047406D704700002DE9F84304464FF013
:1008F0000009CDF8009063484FF41651A56D0068CB
:10090000B0FBF1F72E6894F85C10082000FA01F1B2
:1009100031420FD021680A6852070BD50A6822F0CD
:1009200004020A6094F85C108840A860606D40F092
:100930000100606594F85C104FF0010808FA01F0BE
:10094000304208D021684969090604D5A860606D65
:1009500040F00200606594F85C100420884030424A
:1009600008D021680968890704D5A860606D40F047
:100970000400606594F85C1010208840304218D064
:1009800021680968090714D5A8602068016849032F
:1009900004D50068000308D5A16C07E00168C9050B
:1009A00003D4016821F008010160216C09B12046DF
:1009B000884794F85C1020208840304231D021686C
:1009C0000968C9062DD5A86094F835000528206867
:1009D000016806D0490347D5006800031DD4616C47
:1009E0001CE021F0160101602068416921F08001BE
:1009F0004161206C08B9A06C20B12068016821F029
:100A00000801016094F85C103F208840A86084F8D9
:100A1000349084F83580216D1FE0E16B09B12046E8
:100A20008847606D00282BD0606DC00714D005206A
:100A300084F835002068016821F001010160009808
:100A4000401C0090B84203D820680068C007F6D167
:100A500084F8349084F83580E16C002910D001B01E
:100A60002046BDE8F04308470168C905D5D40168B0
:100A700021F01001016084F8349084F83580CCE7CF
:100A8000BDE8F883400000202DE9F041044600F065
:100A900031FE06465CB1002584F83450022084F80B
:100AA00035002068016821F0010101600DE001209E
:100AB000BDE8F08100F01EFE801B052805D920202E
:100AC0006065032084F83500F2E720680068C007FD
:100AD000F0D12268116820480140D4E9010318438D
:100AE000D4E903363343184363691843A3691843B1
:100AF000E3691843236A18430843616A042903D150
:100B0000D4E90B1319430843106020684069666AF2
:100B100020F0070130460E43012704280CD1A06ABB
:100B20000643E06A40B12046FFF780FD20B1402037
:100B3000606584F83570BAE7206846612046FFF7A3
:100B400061FD94F85C203F2191408160656584F8E7
:100B500035700020ACE700003F8010F02DE9F04137
:100B60000446866D90F83400002501280DD0012040
:100B700084F8340094F835700020012F07D084F8F1
:100B8000340002252846BDE8F0810220FBE7022759
:100B900084F8357060652046FFF772FD94F85C10AC
:100BA0003F208840B0602068016841F01601016074
:100BB000206C20B12068016841F0080101602068C4
:100BC000016841F001010160DCE7000070B50446F6
:100BD00000F090FD0546601C02D0044800780444F3
:100BE00000F088FD401BA042FAD370BD3400002005
:100BF0002DE9F041054690F845000C46012875D0D6
:100C0000012685F84560022085F84400002C70D04C
:100C10002A68116841480140D4E900031843D4E927
:100C200002373B431843AB68184323691843636991
:100C30001843EB681843A3691843E3691843236A10
:100C40001843636A1843A36A18430843106028686E
:100C500007680120FFF7BAFF28680760D4E90B0195
:100C60000843D4E90D1211430843E16B0843216C9A
:100C70000843616C0843A16C0843296848602868F0
:100C800047680120FFF7A2FF286847602968E06CE9
:100C900088602968206DC8602A6891694FF64170A4
:100CA0000140D4E916031843B4F85470236E43EAA4
:100CB00007431843636E1843A36E184308439061BB
:100CC000286887690120FFF781FF28688761D4E9D8
:100CD0001B0108432968C8612868C4690120FFF71F
:100CE00075FF2868C46114E000E002E00220BDE85E
:100CF000F0812968086820F49042D5E9020318437E
:100D000010430860286804680120FFF75FFF286827
:100D1000046005F8446F00206870E8E70F8120FF49
:100D20002DE9F04390F845400025012C0DD04FF0FF
:100D3000010C80F845C0022480F8444044F2F45786
:100D40004FF000495E1E816217E00220BDE8F0838B
:100D500001EB4514C4F80090C5EBC51808EB480832
:100D600002EB8808C4E90178B54204D204F12008F6
:100D7000C4F80C8000E0E1606D1C9D42E8D302687D
:100D800002F58052D16080F844C0002180F84510FF
:100D90000846DBE72DE9F043914690F84520002412
:100DA000012A0AD0012680F84560022280F84420FA
:100DB0004FF4801C5D1EC1621BE00220BDE8F08381
:100DC00001EB4412C2F800C0C4EBC41707EB47089C
:100DD00009EB88079760C7691FB9176847F4400790
:100DE0001760AC4203D202F12007D76000E0D16067
:100DF000641C9C42E4D3026802F58052116180F8C1
:100E00004460002180F845100846D7E7704730B5A8
:100E100090F845100023012908D0012280F84520D0
:100E2000022180F844100024816A1AE0022030BDBB
:100E30000D685B1CC5F30125022D0AD00D6815F461
:100E4000407F09D04163836B5B1C8363012B12D00D
:100E500012E08263016302E0856B6D1C8563C968E3
:100E600081620D68002D01DB042BE1D300F8442FD3
:100E70004470012030BD01630B68C3F30D431B1F99
:100E8000C363036B9B680364C96840F8281F02773B
:100E90004477002030BD70B50446006800F58050EE
:100EA00041694FF0000549064FF0010608D520467C
:100EB00000F0EAF92068402100F58050416109E026
:100EC0004069C0070AD0204600F0ECFA206800F51F
:100ED0008050466184F8446084F8455020684FF49F
:100EE000803100F580504161206800F580504069F4
:100EF00000040CD52046FFF789FF20684FF400411D
:100F000000F58050416184F8446084F8455070BD1C
:100F10002DE9FC474FF000060400B146009603D0CF
:100F200094F8440018B107E00120BDE8FC8784F87C
:100F30004560204600F0E0F86548016841F48041D2
:100F40000160006800F4804001906248016821F46B
:100F5000000101600168226A11430160206800F508
:100F60008050016841F00101016000F0C3FB0546BB
:100F70004FF4FA7709E000BF00F0BCFB401BB84219
:100F800003D9032004F8440F67E0206800F580507F
:100F90000068C007F0D12068006920F01C0500F04F
:100FA00059FD4D494D4A0144914202D245F0080590
:100FB00016E04B494B4A0144914202D245F00C05E0
:100FC0000EE04949494A0144914209D3484908443D
:100FD0004849884202D245F0040501E045F0100579
:100FE000206805614FF400420021204600F05CFAC1
:100FF0000125A8BB0520FFF7E9FD606888B300F074
:1010000079FB804641F288376A460121204600F08C
:10101000F9F800F06FFBA0EB0800B84217D8009871
:101020004007F1D54FF480520021204600F03CFAF1
:10103000B0B900F05FFB80466A460121204600F00F
:10104000E1F800F057FBA0EB0800B8420AD90121F3
:101050002046FFF759FB04F8445F0320667064E7FD
:1010600024E018E000988006E6D56A461F21204655
:1010700000F0C8F8D0B90098C10603D54FF400615C
:10108000E16000E0E660400701D5A66018E04FF49B
:101090008040A06014E0E068A168C00840EA510008
:1010A00082B20021204600F0FFF930B10121204634
:1010B000FFF72AFB84F8445036E70520FFF786FD4A
:1010C00049462046FFF720FB84F8445000202CE7D7
:1010D000443802400438014000D3CEFEC0E1E400B1
:1010E00040F1E9FD40787D0100796CFC005A620214
:1010F000001F0AFA80F0FA02F0B587B00446142106
:101100006846FFF73EF93949206888426CD1384873
:101110000024016841F000710160016801F0007174
:101120000591016841F080610160016801F0806112
:101130000591016841F000610160016801F0006102
:101140000591016841F004010160016801F00401AA
:101150000591016841F001010160016801F00101A0
:101160000591016841F002010160016801F002018E
:101170000591016841F0400101600068022500F01E
:10118000400005903220CDE9000502AA03260B2776
:1011900082E8D0006946174800F0C2F98620CDE900
:1011A000000502AA694682E8D000134800F0B8F9A9
:1011B000A802CDE9000502AA694682E8D0000F48DE
:1011C00000F0AEF97003CDE9000502AA694682E895
:1011D000D0000B4800F0A4F9002205213D2000F0CA
:1011E00015FB3D2000F004FB07B0F0BD008002407D
:1011F0003038024000080240000002400004024073
:10120000001802402DE9F047044690F8440091464A
:1012100082281DD0822084F84400226810694FF68D
:10122000FF7500F01C03208A05EAC02018434FF424
:10123000F86303EA8111014321F0020040F0010547
:10124000156100F057FA064601274FF4803810E088
:101250000220BDE8F08700BF00F04CFA801B40453B
:1012600005D304F8447F002060700320F1E7206874
:101270000569E807F0D12068406981B2C9F800101B
:1012800084F844700020E4E70148006808F058BE84
:101290000C000020F8B5044690F84500012839D02C
:1012A000012584F84550022084F844002068002677
:1012B000016841F00801016020680068009028463C
:1012C000FFF7F4F92168009808602068016841F090
:1012D000040101602068006800900120FFF7E6F932
:1012E0002168009808602046FFF7F0F9206800F5B3
:1012F0008050816941F400518161206800F580507F
:10130000816941F00201816184F8445084F84560AC
:101310000020F8BD0220F8BDF8B5044690F845005D
:10132000012839D0012584F84550022084F8440072
:10133000206800F58050816921F4005181612068A6
:1013400000F58050816921F002018161206800264A
:10135000016821F00401016020680068009001200C
:10136000FFF7A4F92168009808602046FFF7AEF95E
:101370002068016821F00801016020680068009081
:101380000120FFF793F921680098086084F8445021
:1013900084F845600020F8BD0220F8BDF0B590F853
:1013A00045200023012A11D0012780F84570022230
:1013B00080F84420002459B1C66A3268002A0ADA4B
:1013C000122100F8441F44700120F0BD0220F0BD3E
:1013D00000F8447FF7E740F2F455A9420BD9B1FB7E
:1013E000F5FCB1FBF5F205FB1C1CBCF1000F00D0B5
:1013F000521C012A43D1326842F040523260C26A24
:10140000C1F30C015160C16A0A6842F000420A60EF
:10141000C16AC968C16234E0D6F800C02CF0405CF3
:10142000C6F800C033B9C66AD6F800C04CF0805C7C
:10143000C6F800C0C66A7560561EB34214D1C66AAB
:10144000D6F800C04CF0005CC6F800C0C2F101063E
:10145000C6EBC61606EB4606D0F82CC001EB860696
:10146000C6F30C06CCF80460C66AD6F800C04CF08F
:10147000004CC6F800C0C66A5B1CF668C6629342A0
:10148000CAD3016801F580514A69520705D5042283
:101490004A61016801F580514C6000F8447F447056
:1014A0000020F0BD704700002DE9F041044690F89F
:1014B000440042281ED0422084F844002368186962
:1014C0004FF6FF7600F01C05208A06EAC02028436C
:1014D0004FF4F86505EA8111014390B241F003052C
:1014E00058612068056100F005F9064601274FF4B0
:1014F000803810E00220BDE8F08100BF00F0FAF86B
:10150000801B404505D304F8447F00206070032011
:10151000F1E720680569E807F0D184F84470EAE74C
:101520002DE9F84F00224FF0010803254FF00F0E70
:101530000B6808FA02F42340A3426ED14E68012ED4
:1015400005D0022E03D0112E01D0122E12D18668A2
:101550004FEA420C05FA0CF7BE43CF6807FA0CF7C6
:10156000374387604668A6430C79C4F3001494405F
:1015700034434460C668570005FA07FC8C6826EAC5
:101580000C06BC403443C4604C68022C01D0122CC1
:1015900013D1D40800EB8404A346D4F82090540758
:1015A0004FEAD46A0EFA0AF629EA06090E6906FA23
:1015B0000AF646EA0906CBF8206004680E7924EAA8
:1015C0000C0406F00306BE40264306604C68E400A7
:1015D0006FD53B4C266846F480462660246822F08E
:1015E000030604F480440094364C3444A446D4F8F2
:1015F00008489607360F0EFA06F7BC43324FB8423A
:1016000001D100272EE0314FB84201D1012729E056
:101610002F4FB84202D1022724E04AE02D4FB842B2
:1016200001D103271EE02C4FB84201D1042719E055
:101630002A4FB84201D1052714E0294FB84201D101
:1016400006270FE0274FB84201D107270AE0264FAF
:10165000B84201D1082705E0244FB84201D109273B
:1016600000E00A27B7402743CCF80878204E3468BA
:101670004F689C43FF0300D51C4334601C4E361D4D
:1016800034684F689C43BF0300D51C433460184E38
:10169000083634684F689C43FF0200D51C43346011
:1016A000134E0C3634684F689C43BF0200D51C4370
:1016B0003460521C102AFFF43BAFBDE8F88F0000E5
:1016C0004438024000300140000002400004024063
:1016D00000080240000C02400010024000140240CA
:1016E00000180240001C024000200240002402407A
:1016F000003C014001488068704700003400002031
:1017000002488168027811448160704734000020EB
:101710000B4810B5016841F400710160016841F4A3
:1017200080610160016841F480710160032000F074
:101730008DF8002000F006F800F03EF8002010BD03
:10174000003C024010B5014688B00022372000F06E
:101750005DF8372000F04CF813480024016841F090
:1017600020010160006805A900F02000069068468D
:1017700000F050F900F074F90C494000B0FBF1F1B1
:101780000C480B4A491E026040F2E732C0E90324CC
:10179000C0E9011400F072FB10B1012008B010BDC7
:1017A000044800F087FBF9E74038024040420F0050
:1017B00000140040500200200C4882B0016841F43F
:1017C00080410160006800F4804000900748001FDD
:1017D000016841F0805101600068002200F08050F3
:1017E00000900F21901E02B000F010B84438024063
:1017F000002809DB00F01F02012191404009800010
:1018000000F1E020C0F8001170470000F0B40E4B6A
:101810001B680C46C3F30223C3F10705042D00D94E
:101820000425191D072901D2002300E0DB1E012633
:1018300006FA05F1491E214099409E40761E164049
:101840003143F0BC01F032BA0CED00E0064900F083
:10185000070208684FF6FF03184040EA0220034AD7
:1018600010430860704700000CED00E00000FA052E
:101870002DE9F8431748016841F080510160006884
:10188000154F00F08050012600903E64FFF732FFB4
:1018900005464FF47A78114C05E000BFFFF72AFFA8
:1018A000401B40450DD86068C003F7D57E64FFF744
:1018B00021FF0546464607E0FFF71CFF401BB042EC
:1018C00002D90320BDE8F88360688003F4D50020C6
:1018D000F8E700004038024000000E42007000406F
:1018E0002DE9F0470E46050065D0DFF81481D8F8E1
:1018F0000000F7B200F00F00B04207D288F8007085
:10190000D8F8000000F00F00B04254D128683D4CD8
:10191000810712D5400703D5206840F4E0502060CD
:101920002878000703D5206840F4604020602068D4
:10193000A96820F0F000084320602878C0072DD067
:10194000304968680839012812D0022813D00328CA
:1019500011D00968890700292DDA216821F00301D7
:1019600001432160FFF7C6FE814641F2883A0EE04E
:1019700009688903EFE709688901ECE7FFF7BAFE18
:10198000A0EB0901514502D90320BDE8F08720688A
:10199000696800F00C00B0EB810FEFD1D8F80010AF
:1019A000404601F00F01B14207D90770006800F00E
:1019B0000F00B04201D00120E7E72878400705D5A5
:1019C0002068E96820F4E050084320602878000788
:1019D00006D52068296920F4604040EAC1002060F3
:1019E00000F05EF82168084AC1F30311515CC84059
:1019F0000649086006480068FFF7A4FE0020C4E717
:101A0000003C024008380240E44501084000002044
:101A1000380000200F2202600C4A136803F0030311
:101A20004360136803F0F0038360136803F4E0532A
:101A3000C36012684FF4E05303EAD2020261044823
:101A4000006800F00F00086070470000083802408E
:101A5000003C024001480068704700004000002040
:101A60000448054900680968044AC1F38221515CB1
:101A7000C84070474000002008380240F445010883
:101A80000448054900680968044AC1F34231515CC1
:101A9000C84070474000002008380240F445010863
:101AA000154810B5006810F00C02144813D0144902
:101AB000042A0FD0082A0ED10F4C241F2268236855
:101AC00002F03F025B0207D52068C0F38810A0FB3C
:101AD000010106E0084610BD2168C1F38811A1FB91
:101AE00000010023FEF7DEFB2168C1F30141491C20
:101AF0004900B0FBF1F010BD083802400024F400AA
:101B000040787D012DE9F84F04006ED02078DFF891
:101B10003C93C007A9F104054AD009F1040001680B
:101B2000C1F38101012908D00068C0F381000228B7
:101B30000AD1D9F80000400206D52868800337D5BD
:101B400060680028E1D033E06068B0F5803F10D0D5
:101B5000B0F5A02F286810D020F4803028602868C5
:101B600020F4802028606068A8B1FFF7C3FD064616
:101B70000DE0286840F48030F4E740F480202860CD
:101B8000F7E700BFFFF7B6FD801B642873D828680D
:101B90008003F7D50CE0FFF7ADFD064605E000BF7A
:101BA000FFF7A8FD801B6428F0D828688003F7D4CD
:101BB0002078DFF89C8280074FF0000A3ED5A348CA
:101BC000001D016811F00C0F08D00068C0F38100FF
:101BD00002280BD1D9F80000400207D428688007FA
:101BE00016D5E068012800D112E02BE1E068B8B119
:101BF0000120C8F80000FFF77DFD064605E000BFA4
:101C0000FFF778FD801B0228C0D828688007F7D529
:101C10002868216920F0F80040EAC10028600DE042
:101C2000C8F800A0FFF766FD064604E0FFF762FD76
:101C3000801B02281FD828688007F7D42078000767
:101C400022D5824E83486169703671B101210160ED
:101C5000FFF750FD074604E0FFF74CFDC01B0228CC
:101C600009D830688007F7D50EE0C0F800A0FFF76C
:101C700041FD074605E082E0FFF73CFDC01B02285E
:101C80007DD830688007F7D42078400768D5DFF822
:101C9000BCB100270BF13C0BDBF80000C0000BD4FB
:101CA000DBF8001041F08051CBF80010DBF80000A9
:101CB000012700F080500090674E3068C00510D4B6
:101CC000306840F480703060FFF714FD009005E04C
:101CD000FFF710FD0099401A022850D83068C0055F
:101CE000F6D55A4EA0686C3601280FD0052830680A
:101CF00010D020F001003060306820F00400306027
:101D0000A068B8B1FFF7F6FC00900FE0306840F033
:101D10000100F4E740F004003060F7E7FFF7EAFC69
:101D20000099411A41F28830814266D830688007B4
:101D3000F4D50EE0FFF7DEFC009007E0FFF7DAFCD9
:101D40000099411A41F28830814256D830688007A4
:101D5000F4D42FB1DBF8001021F08051CBF8001043
:101D6000A069C8B33949091D0968C1F38101022975
:101D70004AD00228504607D0C8F8600000E03CE096
:101D8000FFF7B8FC04463BE04746C8F86000FFF7A1
:101D9000B1FC064605E000BFFFF7ACFC801B022843
:101DA0002BD828688001F7D4D4E907010843A16A39
:101DB0002A4A490802EB0141626A41EA821108435A
:101DC00094F82C1040EA0161C9F80010012038662F
:101DD000FFF790FC044606E036E000BFFFF78AFC00
:101DE000001B022809D828688001F7D52CE000BF25
:101DF000FFF780FC001B022802D90320BDE8F88F02
:101E000028688001F4D41FE00128F7D0D9F8000039
:101E1000E26900F48001914214D1226A00F03F018E
:101E200091420FD147F6C071626A0140914209D1D7
:101E3000A26A00F44031914204D1E16A00F070607E
:101E4000884201D00120D9E70020D7E704380240BA
:101E500000004742800E4742007000400000FFFF34
:101E60004FF0E0210428086903D020F00400086145
:101E7000704740F00400FAE77047704710B504005F
:101E800003D094F83D0010B107E0012010BD002000
:101E900084F83C00204600F00CF8022084F83D0055
:101EA000211D206800F0AAFC012084F83D000020DC
:101EB00010BD70470168CA6842F00102CA6000683C
:101EC000816801F00701062903D0016841F0010192
:101ED000016000207047704770B5044600680169D2
:101EE0004FF00005C943890715D4C168C943890764
:101EF00011D4E91E016101202077206880698007E4
:101F0000204602D0FFF7E7FF04E000F098F82046F3
:101F100000F096F8257720680169C943490717D46E
:101F2000C168C943490713D46FF00401016102205D
:101F300020772068806910F4407F204602D0FFF7A8
:101F4000CAFF04E000F07BF8204600F079F825771E
:101F500020680169C943090716D4C168C943090744
:101F600012D46FF008010161042020772068C06955
:101F70008007204602D0FFF7AEFF04E000F05FF8D4
:101F8000204600F05DF8257720680169C943C9063D
:101F900017D4C168C943C90613D46FF01001016199
:101FA000082020772068C06910F4407F204602D0C6
:101FB000FFF791FF04E000F042F8204600F040F8FF
:101FC000257720680169C943C90708D1C168C94399
:101FD000C90704D1891E0161204600F033F820684A
:101FE0000169C943090609D4C168C943090605D472
:101FF0006FF0800101612046FFF73EFF2068016914
:10200000C943490609D4C168C943490605D46FF0DC
:1020100040010161204600F01FF820680169C943B2
:1020200089060BD4C168C943890607D46FF0200123
:1020300001612046BDE87040FFF71FBF70BD7047CB
:102040007047000000680349884201D1FFF758BB80
:102050007047000000140040704770B504460068E7
:10206000C16821F49071C1602068416921F00101CB
:102070004161206841694FF0000549060FD541696B
:1020800021F040014161606B48B10565606BFEF76E
:10209000CFFB20B1606BFEF724FC202805D0E5853E
:1020A000202084F83A00002070BD1020E063032057
:1020B00070BD704770B5026804461068D1685369F6
:1020C00010F00F0F52D003F0010501F490762E436B
:1020D0005FD0C20705D0CA0503D5E26B42F001020A
:1020E000E263420705D5DA0703D0E26B42F0020251
:1020F000E263820705D5DA0703D0E26B42F00402FF
:10210000E263020707D501F020022A4303D0E26B05
:1021100042F00802E263E26B002A33D0800604D565
:10212000880602D5204600F034FC20684069E16B47
:10213000C0F38010090700D428B3204600F012FC39
:102140002068416949061AD5416921F04001416181
:10215000606BA0B11B490165606BFEF7B0FB002806
:1021600010D0606B016DBDE870400847830610D544
:102170008B060ED52046BDE8704000F00ABC204614
:10218000FFF797FF70BD2046FFF793FF0020E06345
:1021900070BD030606D50B0604D52046BDE8704089
:1021A00000F0D6BC4006F3D54806F1D5D1682046EC
:1021B00021F04001D160202184F8391000F039F974
:1021C00070BD0000C528000870B5040004D094F864
:1021D0003900002510B106E0012070BD84F83850A8
:1021E000204600F023F8242084F839002068C168D4
:1021F00021F40051C160204600F016FC20680169FE
:1022000021F4904101612068416921F02A01416176
:102210002068C16841F40051C160E563202084F862
:10222000390084F83A00002070BD000070B586B017
:10223000064614216846FEF7A4F823493068884210
:1022400040D122480025016841F01001016000687A
:1022500000F0100005901D481438016841F001019C
:1022600001600068694600F0010005904FF4C0600D
:1022700000900220CDE9010503200390072004907F
:102280001348FFF74DF9144C124820604FF00060DE
:10229000C4E901054014C4E903506561A561E56125
:1022A000256220466562FEF7EFFB08B1FEF7BEFA35
:1022B0007463002205212520A663FFF7A7FA2520D5
:1022C000FFF796FA06B070BD001001404438024096
:1022D0000000024040640240F0010020F8B50446CE
:1022E00090F83A0020283CD1C1B3BAB394F8380032
:1022F000012836D0012084F83800A162A28500258B
:10230000E563222084F83A00636B1748D863636B57
:1023100016481864636B1648D864606B13460565ED
:102320000846666B216802463046091DFEF716FC1A
:10233000206801684168009184F83850C16841F410
:102340008071C1602068416941F0010141612068EC
:10235000416941F0400141610020F8BDFFE70120E3
:10236000FBE70220F9E700001F2900085B290008AD
:10237000D5280008704770472DE9F843044690F8C7
:1023800039001F4616460D46202850D1B5B1AEB1D2
:1023900094F8380001284AD0012084F838004FF022
:1023A0000008C4F83C80212084F83900FFF7A2F926
:1023B000A6848146E68484F8388026E00120BDE8C2
:1023C000F883E08C401EE084A0684B46B0F5805F47
:1023D0004FF000024FF080012046009703D000F03C
:1023E000E8FBE8B90DE000F0E4FBC8B928882168F3
:1023F000C0F308004860206908B16D1C05E0AD1C01
:1024000003E0216815F8010B4860E08C0028D8D162
:102410004B46002240212046009700F0CAFB08B13D
:102420000320CCE7202084F839000020C7E70220F1
:10243000C5E77047FEE70000094808B5016841F4A8
:10244000800101600068002200F4800000900521F6
:102450003A20FFF7DBF9BDE808403A20FFF7C8B99A
:102460003038024010B50B4A00210B4807F0A0FDA0
:102470000A4C084A002120602432094807F098FDE0
:10248000044A606048320021064807F091FDA060D0
:1024900010BD0000704501088926000800000020DA
:1024A000BD260008E1260008154808B5016841F07E
:1024B00004010160016801F004010091016841F02C
:1024C00080010160016801F080010091016841F024
:1024D00001010160016801F001010091016841F012
:1024E00002010160016801F002010091016841F000
:1024F00040010160006800F04000009008BD00004D
:1025000030380240FEB5494CC022A82122706170CB
:102510000027A7707A20E070251DFF2028706870C2
:10252000A8702E1DEF7032707170B7700120F070BE
:10253000394600200FF0E2FD2068E17803BA0A0670
:1025400003F47F4342EA032203BA00BA03F47F0391
:10255000084342EA1322A4F10C0142EA1060086029
:102560002868E97803BA0A0603F47F4342EA0322A3
:1025700003BA00BA03F47F03084342EA1322A4F12A
:10258000080142EA106008603068F17803BA0A0670
:1025900003F47F4342EA032203BA03F47F0300BA41
:1025A00042EA1322084342EA1060211F231F0860F9
:1025B0001F4820490097CDE901101A1F111F1E481E
:1025C00006F06CFE1C4807F0A3F81B4C94F82D0095
:1025D0004007204602D507F0AFF901E007F09EF86A
:1025E0001649154807F0EEF801210022084607F0C9
:1025F0004FFC0E49103908601C31C1E900400E48FB
:1026000024213430FDF7BDFE0B480DA134300246C5
:1026100001604FF4806141611021816103B0034981
:10262000BDE8F0400C31084807F0C2BC2000002093
:10263000CD220108C941000878330020ED4200088E
:102640004C696E6B54687200A94200080C4810B5C2
:102650000A4901604FF4E1214160002181600C22B0
:10266000C160C0E904128161C161FFF7ADFD0028BE
:1026700003D0BDE81040FEF7D9B810BD00100140EE
:10268000B0010020FEE7FEE7FFF73CFF0FF062FC21
:1026900005A000F0FBFA0848006810F0DBFE0120FE
:1026A00007F09AF9FBE700007463706563686F5F79
:1026B000696E69740D0A0000000000204FF47A74FE
:1026C000204607F089F902A000F0E0FAF8E70000E0
:1026D000B5DAD2BBB8F6C8CECEF10D0A00000000C4
:1026E0004FF47A74204607F077F909F005FC02A050
:1026F00000F0CCFAF6E70000B5DA3232323232328C
:10270000B8F6C8CECEF10D0A0000000010B550207A
:1027100080F31188BFF34F8FBFF36F8F11F04AFD25
:1027200018B104494FF080500860002080F31188F0
:1027300010BD000004ED00E070B592B03021684695
:10274000FDF71FFE14210CA8FDF71BFE1F480025F6
:10275000016841F080510160006800F080501190E4
:102760001B48016841F4404101600068022400F404
:102770004040119001200090000401908001CDE9BB
:1027800006400F260896D820CDE9090404200B90B6
:102790006846FFF7B7F908B172B6FEE7FFF768F8C9
:1027A00008B172B6FEE74FF4A050CDE90E504FF4D9
:1027B0008050CDE90C64109005210CA8FFF790F82B
:1027C000002801D072B6FEE712B070BD403802405A
:1027D000007000400548016841F470010160034940
:1027E0004FF00060803908607047000088ED00E01D
:1027F0000148FFF771BB000050020020F0B50268ED
:10280000254C264D264E274F274B4FF0804CA0429B
:1028100009D0604507D0A84205D0B04203D0B842E5
:1028200001D0984204D122F0700E4A6842EA0E02AA
:10283000A0421BD0604519D0A84217D0B04215D095
:10284000B84213D0984211D0184DA8420ED0184D5E
:10285000A8420BD0174DA84208D0174DA84205D06A
:10286000164DA84202D0164DA84203D122F440755D
:10287000CA682A434D6922F080022A4302608A68AE
:10288000C2620A688262A04201D0984201D10969FD
:10289000016301214161F0BD0000014000040040DE
:1028A00000080040000C00400004014000400140CE
:1028B000004401400048014000180040001C004056
:1028C0000020004010B5806B0021C185C184FFF756
:1028D000F0FB10BD70B5846B2068406994F8391026
:1028E000C0F3C0100025212904D118B1E584204689
:1028F00000F046F82068406994F83A10C0F3801060
:10290000222904D118B1E585204600F02BF8E06BB0
:1029100040F01000E0632046FFF7CBFB70BD10B520
:102920000146806B09680968C90513D40021C18577
:102930000168CA6822F48072CA6001684A6922F09C
:1029400001024A6101684A6922F040024A6120217D
:1029500080F83A10FFF70EFD10BD10B5806BFFF741
:102960000AFD10BD0168CA6822F49072CA6001684D
:102970004A6922F001024A61202180F83A1070472A
:102980000168CA6822F0C002CA60202180F83910AC
:10299000704710B590F83A10222901D0022010BDDE
:1029A0008168B1F5805F11D00169002901681FD0ED
:1029B000496801F07F03816A4A1C82620B70C18DF5
:1029C000491E0904090CC18518D02BE00269816AEF
:1029D000002A0268526805D0D2B20A80816A491C76
:1029E0008162ECE7C2F308020A80816A891CF7E77A
:1029F0004A68816A4B1C83620A70E0E70168CA6812
:102A000022F02002CA600168CA6822F48072CA609B
:102A100001684A6922F001024A61202180F83A10D7
:102A2000FFF7A8FC002010BD2DE9F0410446006826
:102A30000169E26821F44051114301612169A068F4
:102A4000E26908436169114308432168CA6849F291
:102A50000C639A430243CA6020684169A26921F469
:102A6000407111434161E069192764253226B0F5B0
:102A7000004F354A354920684FF0000806D088429B
:102A800001D0904236D1FEF7FBFF35E0884201D0FD
:102A9000904202D1FEF7F4FF01E0FEF7E1FF61682A
:102AA0004A18A0FB070148EB0803FDF7FBFB0146B2
:102AB000B0FBF5F00201B1FBF5F06FF018035843DD
:102AC00001EB800006EBC000B0FBF5F000F0F80071
:102AD00002EB4002B1FBF5F0584301EB800006EB3E
:102AE000C000B0FBF5F000F00700216810448860DA
:102AF000BDE8F081FEF7B4FF61688B0F8A00A0FB90
:102B00000701FDF7CFFB0146B0FBF5F06FF01802AF
:102B1000504301EB800006EB0010B0FBF5F000F035
:102B2000F002B1FBF5F002EB0012B1FBF5F06FF033
:102B30001803584301EB800006EB0010B0FBF5F0E2
:102B400000F00F00D1E70000001401400010014028
:102B500090F83910212901D0022070478168B1F521
:102B6000805F016A0BD04A1C0262026809785160DA
:102B7000C18C491E0904090CC1840ED017E00988D4
:102B80000268C1F30801516001690029016A02D09D
:102B9000491C0162ECE7891CFBE70168CA6822F066
:102BA0008002CA600068C16841F04001C160002035
:102BB00070472DE9F041984617460E460446069D9B
:102BC0001DE0681C1BD02DB1FEF794FDA0EB0800A2
:102BD000A84214D92068C16821F4D071C16020686E
:102BE000416921F001014161202084F8390084F815
:102BF0003A00002084F838000320BDE8F081206806
:102C0000006836EA000004D00020B842D9D0002085
:102C1000F3E70120F9E7000038B51648FFF74AFA54
:102C2000144800680168C943C90621D40168002519
:102C3000406800900F48FFF710FA0F48006840689E
:102C40000E4CC0F5C8720E49226001F5C870FDF740
:102C500071FB012060600B48FDF7B4FC65602560E6
:102C6000BDE838404FF4C87205490248FFF736BB4B
:102C700038BD0000B0010020F001002098010020C4
:102C8000EC1401207C160120FEE700000FB4054B78
:102C900010B503A9044A029800F02CF810BC5DF8A6
:102CA00014FB0000D5440008A40100200907090E08
:102CB000002804DB00F1E02080F80014704700F0E9
:102CC0000F0000F1E02080F8141D704700487047A5
:102CD000AC01002002E008C8121F08C1002AFAD186
:102CE00070477047002001E001C1121F002AFBD18C
:102CF000704700002DE9FF4F8BB09A460F460546FE
:102D0000002606E025280BD052460D9990476D1CF1
:102D1000761C28780028F5D10FB03046BDE8F08F3A
:102D20000024A0460122604900E0044315F8013F59
:102D3000203B02FA03F00842F7D128782E2817D159
:102D400015F8010F44F004042A280ED06FF02F026A
:102D50002878A0F1300109290AD808EB880102EB94
:102D6000410100EB01086D1CF2E757F8048B6D1C64
:102D7000287869283ED006DC0028CDD063280BD007
:102D8000642804D136E0732810D075284BD0524601
:102D90000D999047761C85E017F8040B8DF800001C
:102DA00000208DF80100E946012003E057F8049B5C
:102DB0004FF0FF3061074FF0000401D40AE0641CBB
:102DC00044450DDA8442FADB19F804100029F6D1E3
:102DD00006E0641C8442FCDB19F804100029F8D1D9
:102DE000264404E019F8010B52460D999047641EE1
:102DF000F8D257E001CF4FF00A0B002802DA404228
:102E00002D2102E0210504D52B218DF8241001216C
:102E100003E0E10705D02021F7E70DF12009089133
:102E20000CE00021F9E701CF4FF00A0BF9E7594612
:102E3000FDF7CCFA01F1300209F8012D0028F6D196
:102E4000ADEB090000F1200B600701D44FF0010841
:102E5000D84502DDA8EB0B0000E0002080460024EE
:102E600006E009A85246005D0D999047641C761C47
:102E700008988442F5DB04E0302052460D999047D3
:102E8000761CB8F10001A8F10108F5DC05E019F89D
:102E9000010B52460D999047761CBBF10001ABF136
:102EA000010BF4DC6D1C34E7092801002DE9F04723
:102EB00090460E4604006FF0050555D004F114004D
:102EC000814609F0EFF800284ED0EF1F002E3DD0CC
:102ED000B8F1000F06D032A340F22A223DA147A04C
:102EE000FFF7D4FE2078616A05F038FA05004FF04C
:102EF000FF383DD06E6008F0DDFF2946484609F0F6
:102F0000C5F8A0B36C680021204609F0E3FB00215E
:102F100020460DF03FF8002120460DF07BFD0022F9
:102F2000114620460CF06AF8002120460AF058F8B5
:102F30000020686005F11000044609F08BF8204677
:102F400009F0A1F8284605F0B7FB1FE0384603F06A
:102F500043FE0146484609F099F828B9636A1BB157
:102F600000221146204698472846BDE8F0870FE02A
:102F7000384603F031FE0146484609F087F828B983
:102F8000636A1BB100221146204698474046ECE791
:102F9000636A1BB100221146204698470020E4E7EF
:102FA0002E2E2F4D6964646C6577617265732F54A2
:102FB000686972645F50617274792F4C7749502F41
:102FC0007372632F6170692F6170695F6D73672E13
:102FD00063000000657870656374206E65777063C8
:102FE00062203D3D204E554C4C206F722065727220
:102FF000203D3D204552525F4F4B000041737365A9
:103000007274696F6E2022257322206661696C6577
:1030100064206174206C696E6520256420696E20CF
:1030200025730A002DE9F041884607460024174D14
:1030300008F0B6FF05EB0411096841B108F0D8FFAC
:10304000641C042CF4DB4FF0FF30BDE8F08105EB8D
:1030500004152F6008F0CCFF00266E60A87B0028C6
:1030600006D00BA340F20E2216A11EA0FFF70EFE03
:103070002E8138780121B1EB101F02D15FEA0800E0
:1030800000D001206881AE812046DEE7A4DC00206C
:103090002E2E2F4D6964646C6577617265732F54B1
:1030A000686972645F50617274792F4C7749502F50
:1030B0007372632F6170692F736F636B6574732E06
:1030C00063000000736F636B6574735B695D2E73DF
:1030D000656C6563745F77616974696E67203D3DF7
:1030E00020300000417373657274696F6E20222571
:1030F0007322206661696C6564206174206C696E5E
:103100006520256420696E2025730A0010B50446E9
:103110000420FEF7A5FE0148046010BD94010020C4
:1031200070B5054600244FF47A7603E0304600F08F
:1031300005F8641CAC42F9D370BD000070B54FF0C7
:10314000E024002265690949A36909684843A16927
:103150009942FCD002D2A3EB010302E0A5EB0106E9
:1031600033441A440B468242F1D370BD94010020CF
:1031700070B505460C46880706D009A34FF4B67211
:1031800013A11BA0FFF782FD08F00AFFA9680968D8
:103190002160A9680C60BDE8704008F029BF0000FC
:1031A0002E2E2F4D6964646C6577617265732F54A0
:1031B000686972645F50617274792F4C7749502F3F
:1031C0007372632F636F72652F6D656D702E630070
:1031D0006D656D705F667265653A206D656D207016
:1031E000726F7065726C7920616C69676E656400DE
:1031F000417373657274696F6E2022257322206695
:1032000061696C6564206174206C696E6520256459
:1032100020696E2025730A0070B5044608F0C0FED0
:103220000546A0680468002C0FD021680160A00743
:1032300006D008A34FF48C7212A11BA0FFF726FD45
:10324000284608F0D5FE204670BD284608F0D0FE7E
:10325000002070BD2E2E2F4D6964646C65776172FD
:1032600065732F54686972645F50617274792F4C72
:103270007749502F7372632F636F72652F6D656D81
:10328000702E63006D656D705F6D616C6C6F633A7D
:10329000206D656D702070726F7065726C79206141
:1032A0006C69676E65640000417373657274696F61
:1032B0006E2022257322206661696C65642061742A
:1032C000206C696E6520256420696E2025730A00D4
:1032D0002DE9F0470F46040006D13FA34FF4DC72FE
:1032E0004AA14EA0FFF7D2FC08F05AFE0026666005
:1032F0002772217F41F0010121776578667008F01F
:1033000077FE636A7BB10022042120469847636AF6
:103310004BB10022114620469847636A1BB1002238
:10332000022120469847384603F056FC804604F1B7
:103330001000814608F0B6FE18B14146484608F034
:10334000A5FE04F11400814608F0ACFE18B1414618
:10335000484608F09BFE012D0FD0042D0DD0032D03
:103360000BD0206A002834D0BDE8F0471AA340F201
:10337000F71234A129A0FFF789BC217FC1F3800097
:1033800001F0FB012177002823D1206A30B912A374
:103390004FF4F37232A121A0FFF778FC206A042DCC
:1033A00008D00771206A05680C35284608F0B2FE7F
:1033B00010B108E00671F5E707A340F2EF122FA164
:1033C00016A0FFF763FC28462662BDE8F04708F028
:1033D0009EBEBDE8F08700002E2E2F4D6964646C00
:1033E0006577617265732F54686972645F506172AA
:1033F00074792F4C7749502F7372632F6170692F46
:103400006170695F6D73672E63000000636F6E6E9D
:1034100020213D204E554C4C000000004173736547
:103420007274696F6E2022257322206661696C6553
:1034300064206174206C696E6520256420696E20AB
:1034400025730A00636F6E6E2D3E63757272656E32
:10345000745F6D7367203D3D204E554C4C0000005D
:10346000636F6E6E2D3E63757272656E745F6D7301
:103470006720213D204E554C4C000000696E61765E
:103480006C6964206F705F636F6D706C65746564E8
:103490005F73656D00000000002802DC41421129C5
:1034A00001DB052070470249A1EB800000687047EE
:1034B0000C46010870B5094D0646002404EB440093
:1034C00005EBC000017D29B18068B04202D12046E1
:1034D00000F036F9641C0A2CF0DB70BDEC130120FF
:1034E0002DE9F74F84B04FF00A0B00240646DA4668
:1034F0005F46D94602940194CDF80040514904EB4F
:10350000440001EBC008039098F814500A2F1DD016
:10351000002D2AD0012D08D0022D06D24AA340F258
:10352000231257A166A0FFF7B1FB9EB13168D8F80E
:10353000040081420ED1069820B1D8F808100698F0
:10354000814207D1204607B0BDE8F08F002DE1D1C0
:1035500027460AE0012D16D0022D06D3B8F8120036
:103560000099884201D3A2460090641C24B20A2C20
:10357000C4DB059881074FF0FF30E4D40A2F16D042
:1035800018DA3C463EE02F49039851F830000028F5
:10359000B8F8120005D002998842E6D3A1460290FD
:1035A000E3E701998842E0D3A3460190DDE705995E
:1035B000C907C8D05146BAF10A0F0EDA0C462148A5
:1035C00001EB440150F8310080B11FA340F26D12AD
:1035D00045A13BA0FFF75AFB08E05946BBF10A0F93
:1035E00003DB4946B9F10A0FADDA0C460A2C06DBBB
:1035F00015A340F27F1242A131A0FFF747FB2046FE
:1036000000F09EF80A2C06DB0FA340F283123CA1C7
:103610002BA0FFF73BFB0B4804EB440100EBC1057B
:10362000287D30B108A34FF4C2723AA124A0FFF75D
:103630002DFB0EB130686860002068820698A86093
:1036400080E70000EC1301202E2E2F4D6964646C7E
:103650006577617265732F54686972645F50617237
:1036600074792F4C7749502F7372632F636F726593
:103670002F697076342F6574686172702E63000054
:103680007374617465203D3D204554484152505F3C
:1036900053544154455F50454E44494E47207C7C2D
:1036A000207374617465203E3D204554484152505A
:1036B0005F53544154455F535441424C4500000010
:1036C000417373657274696F6E20222573222066C0
:1036D00061696C6564206174206C696E6520256485
:1036E00020696E2025730A006172705F7461626CDC
:1036F000655B695D2E71203D3D204E554C4C0000B0
:1037000069203C204152505F5441424C455F53492F
:103710005A4500006172705F7461626C655B695D3F
:103720002E7374617465203D3D20455448415250CC
:103730005F53544154455F454D50545900000000BB
:1037400070B5074C00EB4005002654F8350018B161
:1037500007F0FAF844F8356004EBC500067570BD53
:10376000EC1301202DE9F04385B00D00074609D088
:103770007C684FF480782088404539D1207906282C
:1037800036D109E01CA340F28A2229A12CA0FFF720
:103790007DFA05B0BDE8F0836079042828D16088FF
:1037A000082825D1D4F80E000490A169686820B1DA
:1037B000814202D10126334601E00026022304F1B2
:1037C0000802914604A9284600F0A2FBE088404583
:1037D0000ED16EB1022204ABCDE90232291DCDE932
:1037E000001905F1260319464A46284600F090FACA
:1037F000384607F0A9F8CCE72E2E2F4D6964646C8B
:103800006577617265732F54686972645F50617285
:1038100074792F4C7749502F7372632F636F7265E1
:103820002F697076342F6574686172702E630000A2
:103830006E6574696620213D204E554C4C00000099
:10384000417373657274696F6E202225732220663E
:1038500061696C6564206174206C696E6520256403
:1038600020696E2025730A00FEB515460E46040039
:1038700006D143A340F21E324FA153A0FFF706FA30
:1038800036B93FA340F21F3259A14FA0FFF7FEF90E
:1038900035B93BA34FF4487258A14BA0FFF7F6F996
:1038A0002146286800F0F8FF08B1584B3FE028682F
:1038B000C0F303110E2925D0A168636800EA010254
:1038C0000B409A4208D080B2A0F57E41A93903D0BE
:1038D000E068B0B304F10C054D4B4E481A7802EB8A
:1038E000420100EBC1010F7D022F2ED38F68A7424A
:1038F0002BD12F6849688F4227D13146204600F0EE
:103900008BF8FEBD01208DF8040000208DF8050025
:103910005E208DF80600687801AB00F07F008DF81E
:103920000700A8788DF80800E8788DF809004FF4B2
:103930000060009004F126023146204600F0C8FBEA
:10394000FEBDFFE76FF00300FAE7002202EB420141
:1039500000EBC1010F7D022F08D38F68A74205D16C
:103960002F6849688F4201D11A70C6E7521CD2B243
:103970000A2AEBD332462946204600F0D5F8DFE785
:103980002E2E2F4D6964646C6577617265732F54B8
:10399000686972645F50617274792F4C7749502F57
:1039A0007372632F636F72652F697076342F65743D
:1039B000686172702E6300006E6574696620213D37
:1039C000204E554C4C000000417373657274696F52
:1039D0006E2022257322206661696C656420617403
:1039E000206C696E6520256420696E2025730A00AD
:1039F0007120213D204E554C4C00000069706164DF
:103A0000647220213D204E554C4C0000FC450108BD
:103A10007C010020EC1301202DE9F84306461546F1
:103A200088461C4802EB450100EBC104207D0228BA
:103A300006D219A340F2EE2225A131A0FFF726F904
:103A4000144A05EB4501207D02EBC1050C35022827
:103A500013D1608A0327B0F58E7F04D9211D30462B
:103A600000F010FA07E0B0F5877F06D32A46211D43
:103A7000304600F00DFA00B927754FF40060009051
:103A80002B4606F126024146304600F021FBBDE8F8
:103A9000F8830000EC1301202E2E2F4D6964646C16
:103AA0006577617265732F54686972645F506172E3
:103AB00074792F4C7749502F7372632F636F72653F
:103AC0002F697076342F6574686172702E63000000
:103AD0006172705F7461626C655B6172705F696472
:103AE000785D2E7374617465203E3D2045544841D5
:103AF00052505F53544154455F535441424C45002A
:103B0000417373657274696F6E202225732220667B
:103B100061696C6564206174206C696E6520256440
:103B200020696E2025730A002DE9FC5F824626304D
:103B300001900E46086814464FF0FF374FF0000B17
:103B4000514600F0A9FE80B93068C0F303110E2978
:103B50000BD056B148B1524601213046FFF7C0FCA8
:103B6000050005D540B2BDE8FC9F6FF00F00FAE7F5
:103B70007F2D06D337A340F2C13244A147A0FFF7FF
:103B800085F805F0FF094F4909EB490801EBC80525
:103B9000287D00280ED0012808D0022806D22DA3A7
:103BA00040F2CD3248A13DA0FFF770F8BBF1000F05
:103BB00006D104E001202875C5F808A000E034B95A
:103BC0003146504600F05EF90746002CCBD0287DE8
:103BD0003C4E02280ED346494FF4006005F10C0319
:103BE00081F80090009021465046019A00F070FA4A
:103BF00007462DE001282BD1254640F2F137688990
:103C00002989884207D1286828B112A33A4639A1E8
:103C100022A0FFF73BF8287B400607D522464FF449
:103C200020710E2006F0C6FC044605E02D68002D2C
:103C3000E5D1204607F020F844B156F8380008B125
:103C400006F082FE46F83840002701E04FF0FF37CB
:103C5000384688E72E2E2F4D6964646C6577617253
:103C600065732F54686972645F50617274792F4C68
:103C70007749502F7372632F636F72652F69707667
:103C8000342F6574686172702E63000074797065FA
:103C9000206F766572666C6F770000004173736504
:103CA0007274696F6E2022257322206661696C65CB
:103CB00064206174206C696E6520256420696E2023
:103CC00025730A00EC1301206172705F7461626CED
:103CD000655B695D2E7374617465203D3D205045C0
:103CE0004E44494E47206F7220535441424C450088
:103CF0007C0100206E6F207061636B6574207175AC
:103D00006575657320616C6C6F77656421000000D8
:103D10002DE9FF4F81B09846DDE90FA9DDF838B0F5
:103D200006004FF0000706D12CA340F2574239A1FC
:103D30003CA0FEF7ABFF4FF420721C210E2006F0D2
:103D4000EDF9050046D068891C2806D223A340F26D
:103D500062423EA133A0FEF799FF6C68119802F011
:103D600099F8E08096F82C00062806D01BA340F2B4
:103D7000694243492BA0FEF789FFD8F80010A160E3
:103D8000B8F80400A081DAF80010C4F81210BAF8EC
:103D90000400E082DBF80000C4F80E00D9F800004F
:103DA000A0614FF480702080082060800620207180
:103DB0000420607140F60600DDE9022300902946E8
:103DC000304600F085F9284606F0BEFD384605B0BD
:103DD000BDE8F08F4FF0FF30F9E700002E2E2F4D99
:103DE0006964646C6577617265732F546869726485
:103DF0005F50617274792F4C7749502F7372632F23
:103E0000636F72652F697076342F657468617270A4
:103E10002E6300006E6574696620213D204E554C6E
:103E20004C000000417373657274696F6E20222527
:103E30007322206661696C6564206174206C696E10
:103E40006520256420696E2025730A006368656318
:103E50006B20746861742066697273742070627577
:103E6000662063616E20686F6C6420737472756382
:103E700074206574686172705F686472000000008D
:103E800018490108014A00F003B80000FC45010888
:103E90007FB5064D031D0124CDE90035CDE902149F
:103EA00022331946FFF734FF04B070BD0246010803
:103EB00070B5164D002400BF04EB440005EBC002B2
:103EC000117DF1B1508A401C80B25082B0F5967FCE
:103ED0000AD2012906D003290AD004290AD00129CF
:103EE0000BD00EE0052808D32046FFF729FC08E098
:103EF000042000E00220107503E0111D9068FFF718
:103F0000C1FF641C0A2CD7DB70BD0000EC1301203C
:103F1000F8B5044690F82C001F4616460D460628B4
:103F200006D020A340F2A9122CA135A0FEF7AEFEC8
:103F30009DB1286888B1214600F0AEFC68B92878A8
:103F4000C0F303100E2808D0224639462846FFF752
:103F5000C7FA002804DA40B2F8BD6FF00F00F8BDD0
:103F600000EB40013048022300EBC102137594605E
:103F70003368D360B38813820023538250F83150E2
:103F800075B140F831304FF400600090334604F1D1
:103F900026022946204600F09BF8284606F0D4FC6D
:103FA0000020F8BD2E2E2F4D6964646C6577617218
:103FB00065732F54686972645F50617274792F4C15
:103FC0007749502F7372632F636F72652F69707614
:103FD000342F6574686172702E6300006E657469B9
:103FE000662D3E6877616464725F6C656E203D3D4E
:103FF000204554485F4857414444525F4C454E0069
:10400000417373657274696F6E2022257322206676
:1040100061696C6564206174206C696E652025643B
:1040200020696E2025730A00EC1301202DE9F04170
:10403000044640890E270D460E283CD9E07B18B96E
:1040400095F83000401CE073606801788689CA07E3
:1040500014D0012905D006221C49FCF79DF948B16E
:104060000CE0417851B980785E2807D1607B40F040
:10407000100002E0607B40F008006073082E03D05F
:10408000B6F5C16F17D10DE095F82D00000712D5D8
:104090003946204606F03EFE68B92946204600F023
:1040A00043FD10E095F82D00000704D53946204661
:1040B00006F030FE18B1204606F046FC03E0294623
:1040C0002046FFF74FFB0020BDE8F081FC450108CA
:1040D0002DE9F04104461F4690460E46069801F031
:1040E000D9FE05460E21304605F0B4FF18B16FF039
:1040F0000100BDE8F0817068858139680160B98888
:104100008180D8F80020C0F80620B8F8041041815A
:1041100094F82C00062806D006A34FF4997213A138
:104120001FA0FEF7B3FD31462046A269BDE8F0416D
:10413000104700002E2E2F4D6964646C6577617204
:1041400065732F54686972645F50617274792F4C83
:104150007749502F7372632F6E657469662F65748B
:104160006865726E65742E63000000006E65746988
:10417000662D3E6877616464725F6C656E206D7554
:104180007374206265203620666F722065746865DE
:10419000726E65745F6F7574707574210000000035
:1041A000417373657274696F6E20222573222066D5
:1041B00061696C6564206174206C696E652025649A
:1041C00020696E2025730A0010B5040006D10BA3E8
:1041D00040F23A2210A114A0FEF758FD732084F893
:1041E0002E00742084F82F00194860611948A061DE
:1041F000204601F023FB002010BD00002E2E2F4C86
:104200005749502F5461726765742F6574686572E1
:104210006E657469662E63006E6574696620213D63
:10422000204E554C4C000000417373657274696FE9
:104230006E2022257322206661696C65642061749A
:10424000206C696E6520256420696E2025730A0044
:1042500069380008395A0008104E04464FF0FF37FD
:104260003946306805F0B6FD0028F9D10C4807F052
:104270001EFF204601F080FB05000AD0226921467E
:10428000904710B1284606F05FFB054807F020FF75
:10429000ECE7034807F01CFFE2E700000C000020F9
:1042A000CC0000207047000008B5044600200090B4
:1042B0006A4601210C48FCF7A5FF009800F00400B5
:1042C0000090216891F82D20520704D438B1084697
:1042D00005F0D2FA03E010B9084605F077FAC820D5
:1042E00005F07AFBE4E70000303300202DE9FC41C3
:1042F000002506460195009590F82D00400742D50F
:10430000254C606868B34FF4805200212046FDF7C9
:10431000CBF8FDF7EFF94FF47A7701906A46012167
:104320001D48FCF76FFFFDF7E5F90199401AB84207
:1043300017D800988006F1D56A461F211648FCF769
:1043400061FF0098C10603D54FF40061E16000E011
:10435000E560400701D5A5600DE04FF48040A06006
:1043600009E0E068A168C00840EA510082B200217B
:104370000948FDF799F800210748FCF739FC064881
:10438000FCF788FF02E00448FCF7C6FF3046FFF761
:1043900089FFBDE8FC810000303300202DE9F041A9
:1043A0000E4604005ED0A569002D0DDA07F0F8FD79
:1043B000A569002D06DA0EB96D1EA561BDE8F041B4
:1043C00007F016BE07F014FE284600F0D5F80400EA
:1043D00048D0012707F0E4FD80460120052E19D2C0
:1043E000DFE806F0030A0E1316002089401C00B215
:1043F0002081012834DC14E02089401E20812FE038
:10440000618901B1002760810BE00020608127E015
:10441000A08106E014A34FF41F6220A123A0FEF7A1
:1044200035FCA07BE0B1DFB1B4F90800002801DD64
:10443000012700E00027608908B1012600E000267E
:10444000A08908B1012400E00024404607F0D0FD17
:104450002346324639462846BDE8F04107F05ABCAB
:104460004046ABE7BDE8F0812E2E2F4D6964646CA9
:104470006577617265732F54686972645F50617209
:1044800074792F4C7749502F7372632F6170692FA5
:10449000736F636B6574732E63000000756E6B6ED3
:1044A0006F776E206576656E7400000041737365EA
:1044B0007274696F6E2022257322206661696C65B3
:1044C00064206174206C696E6520256420696E200B
:1044D00025730A0013B50A23012269460248FDF735
:1044E0004BFF00981CBD0000B001002010B5002853
:1044F00021D0114B0022001F196803E0814203D82C
:104500000A4649680029F9D152B11368841A9C42BD
:1045100004D1006818441060104602E0506000E0CA
:10452000186039B102680B1A934203D10B681A4420
:1045300002604968416010BDA80100202DE9F041EA
:104540000E46044607F02CFD00216768616025686F
:10455000216007F04DFD380005D016B106F0F4F9E2
:1045600001E003F09BFD002D04D02846BDE8F0419A
:1045700004F036B8BDE8F08110B50EF021F800283F
:1045800003D1024909200860002010BD88010020E5
:104590000A46032100F0F4B82DE9FE4F8A4644494B
:1045A0000446D1F8088098F800000007850E142D05
:1045B00079D36089042876D360680078002872D0A7
:1045C000082870D1486901F11407C0F303120E2ABC
:1045D00069D08946096800F05FF9002863D1208915
:1045E000082860D305F10E010E46204605F032FD85
:1045F000002830D02089411989B2884253D84FF41D
:1046000020720E2005F08AFD06004CD0718905F15C
:104610000800814216D32A4641467068FBF78AFE9D
:104620002946304606F076FB002806D021A3B622A4
:104630002EA13CA0FEF72AFB04E02146304606F0FE
:1046400007F818B1304606F07FF92CE0204606F056
:104650007BF934460CE03146204606F05BFB00282F
:1046600006D014A3C72239A12EA0FEF70FFB1AE033
:1046700029462046666805F0EDFCA0B960683968F7
:10468000FF22C160D9F810100161002131707180E2
:104690000272418101228DE806040A46FF23394651
:1046A000204600F011FB2046BDE8FE4F06F04CB955
:1046B000E4DC00202E2E2F4D6964646C65776172F6
:1046C00065732F54686972645F50617274792F4CFE
:1046D0007749502F7372632F636F72652F697076FD
:1046E000342F69636D702E630000000069636D7084
:1046F0005F696E7075743A206D6F76696E672072AF
:104700002D3E7061796C6F616420746F2069636DF8
:104710007020686561646572206661696C65640A11
:1047200000000000417373657274696F6E2022256A
:104730007322206661696C6564206174206C696E07
:104740006520256420696E2025730A0069636D70F9
:104750005F696E7075743A20726573746F72696EFA
:1047600067206F726967696E616C20702D3E7061A1
:10477000796C6F6164206661696C65640A00000091
:104780002DE9FF479146884606464FF420722421C2
:10479000222005F0C3FC050031D06889242806D208
:1047A00018A34FF4B47225A12FA0FEF76FFA6C681E
:1047B00077681C2284F8008084F801904FF000088C
:1047C000A4F80480A4F80680686871680830FBF7D4
:1047D000B1FDF868039003A800F086FC60B1A4F86E
:1047E00002800122CDF80080CDE90120FF2303AA39
:1047F0000021284600F068FA284606F0A5F8BDE832
:10480000FF8700002E2E2F4D6964646C65776172FE
:1048100065732F54686972645F50617274792F4CAC
:104820007749502F7372632F636F72652F697076AB
:10483000342F69636D702E63000000006368656348
:104840006B2074686174206669727374207062757D
:10485000662063616E20686F6C642069636D7020F0
:104860006D65737361676500417373657274696F19
:104870006E2022257322206661696C656420617454
:10488000206C696E6520256420696E2025730A00FE
:104890000A460B21FFF774BF421C12D088B191F871
:1048A0002D2092070BD54B68834208D0896800EA17
:1048B00001020B409A4202D10143491C01D0002061
:1048C00070470120704700002DE9F74F88B004467B
:1048D000099800251426808CAF1F1438C11700EBEF
:1048E0005170C0F3CF00039060680690017801F02A
:1048F0000F01052903D038460BB0BDE8F08F618960
:10490000142907D25BA34FF43F7269A16FA0FEF791
:10491000BDF9F0E7C08801F0BDFAC0F30C0100F466
:10492000005002910790208914381FFA80F88EE019
:1049300003984FF6FF7101EAC0004146404500D997
:10494000084604904FF4207214210E2005F0E6FB77
:104950005FEA000A7ED0BAF80A00142806D245A3FE
:104960004FF4497263A159A0FEF790F91422DAF8C6
:1049700004000699FBF7DEFCDAF804000590049FBA
:1049800035E06089811B8DB2B04206D239A340F276
:104990002D3260A14DA0FEF779F9AF4200D23D461D
:1049A0001DB3052003F028FB5FEA000957D06068BB
:1049B0004B463044CDE9000541222946002005F050
:1049C00033FD5FEA000B50D0204606F055F95549FB
:1049D000C9E904145946504605F042FD781B070406
:1049E0003F0C06D000262468CBE724680026002F61
:1049F000C7D1701986B20998808C14384045029846
:104A0000C0F30C0001DB079909B140F4005001F03C
:104A100041FA0599C8800498143080B201F03AFA3E
:104A200005994880059800214181099851460A9AC4
:104A300043699847504605F087FF0499A8EB0100A9
:104A40001FFA80F8DDE90201084480B20290B8F153
:104A5000000F00E006E07FF46BAF00204CE750460B
:104A600005F072FF4FF0FF3046E7484600F0AEFB1E
:104A7000F5E700002E2E2F4D6964646C6577617236
:104A800065732F54686972645F50617274792F4C3A
:104A90007749502F7372632F636F72652F69707639
:104AA000342F6970345F667261672E630000000006
:104AB0006970345F6672616728293A207062756692
:104AC00020746F6F2073686F727400004173736598
:104AD0007274696F6E2022257322206661696C658D
:104AE00064206174206C696E6520256420696E20E5
:104AF00025730A0074686973206E656564732061AC
:104B0000207062756620696E206F6E652070696521
:104B100063652100702D3E6C656E203E3D20706FF8
:104B200066660000A55700082DE9F047456807466E
:104B30000E4628780421B1EB101F03D0384605F04B
:104B400003FF77E000074FEA9068688801F0A2F958
:104B500004463889A04203D92146384605F0F2FFC1
:104B600079894145EAD33889A042E7D3B8F1140FD7
:104B7000E4D32969DFF81C91C1F303100E28C9F8AA
:104B80001410EA68C9F8102005D0304600F086F805
:104B900050B1344619E096F82D00C00702D0706875
:104BA0000028F6D1002410E099F8140000247F2892
:104BB0000BD03948046806E0B44203D0204600F028
:104BC0006DF810B92468002CF6D13146D9F81000E0
:104BD000FFF762FE0028B1D199F81000C0F303106E
:104BE0000E28ABD0002CA9D0E88830F0C00005D04A
:104BF000384600F035F907001CD07D68C9F8085028
:104C0000C9E90046297838460907890EA9F80C1029
:104C1000414606F07FF8687A012818D0062811D09E
:104C200011280AD04D462146D9F81400FFF734FE6A
:104C300090B11EE00020BDE8F087314638460DF007
:104C40007FFD19E03146384608F062FB14E031463A
:104C50003846FFF7A1FC0FE0287DC0F303100E28B3
:104C600007D04146384605F055FF02213846FFF788
:104C70008FFC384605F068FE0021C9F80010C9F81D
:104C80000410C9F80810A9F80C10C9F81010C9F8D8
:104C90001410CFE7E4DC00201801002010B590F8D4
:104CA0002D10C9070CD0416851B1064A52698A4299
:104CB00004D001461046FFF7EFFD08B1012010BDFA
:104CC000002010BDE4DC0020FEB5DDE90954089E9B
:104CD0001AB109B10F6807B9211D0096CDE9015439
:104CE00000F002F8FEBD00002DE9F84F0546DDE9B1
:104CF0000BA8807BDDF828B01F46164689460128A0
:104D000006D02FA34FF455723AA13DA0FDF7BEFF88
:104D10006FF00104002E35D01421284605F09AF9D1
:104D2000002832D168896C68142806D224A34FF475
:104D300062723DA132A0FDF7A9FF277284F809A095
:104D4000306820614520207084F801B0288901F086
:104D5000A1F8414F60804FF0000AA4F806A03888FF
:104D600001F098F8A0803888401C3880B9F1000F15
:104D700005D0D9F80000E060A4F80AA00CE037489C
:104D80000068F8E76889142802D22046BDE8F88F49
:104D900068686E4600690090B8F8240040B129891F
:104DA000814205D9324641462846FFF78DFDEDE7A1
:104DB000D8F814304046324629469847E6E70000C6
:104DC0002E2E2F4D6964646C6577617265732F5464
:104DD000686972645F50617274792F4C7749502F03
:104DE0007372632F636F72652F697076342F6970E9
:104DF000342E6300702D3E726566203D3D203100EB
:104E0000417373657274696F6E2022257322206668
:104E100061696C6564206174206C696E652025642D
:104E200020696E2025730A00636865636B207468CF
:104E300061742066697273742070627566206361A4
:104E40006E20686F6C64207374727563742069706F
:104E50005F686472000000007E0100208C4701083A
:104E60002DE9F05F45688346287800F00F0005289B
:104E70007DD1E88801F00EF8C004070C688801F0C5
:104E800009F829780907890E814270D8401A1FFA5B
:104E900080F8584605F085FB6A4C06462088304469
:104EA0000A2809D93146284600F026FC00285ED0A1
:104EB000208830440A28E8D8A14664684FF0000AE8
:104EC0000CE06069E968884207D1A06929698842D5
:104ED00003D1A089A988884203D02468002CF0D18E
:104EE00006E02CB1E88800F0D5FFC0041BD025E017
:104EF000042003F081F804000AD13146284600F06E
:104F0000FBFBB04233DB042003F076F80400CED084
:104F10002021FBF736FA0F20E077D9F80410216042
:104F2000C9F8044004E0E08900F0B4FFC00405D0F3
:104F30001422294604F10800FBF7FCF9A87940F394
:104F400040156D1C08D007EB080080B2B84263D34F
:104F50004FF6EB7188425FD82A465946204600F04A
:104F60007DF9411C58D0B9F80020324400E064E0DB
:104F7000A9F8002035B107EB0801A183A17F41F01A
:104F80000101A177012845D1A08B1422143087B2EA
:104F9000606804F10801456828462E68FBF7CAF9E5
:104FA000384600F077FF6880A5F806A0A5F80AA0AB
:104FB000656809E014213046776805F0ABFE31469C
:104FC000284605F04DFA3E68002EF3D1D9F80410BA
:104FD0004E468C4205D1002105E00868A04202D06F
:104FE00001460029F9D1204600F05CFA284605F078
:104FF000D8FA04463088A04206D213A340F29B227E
:1050000020A127A0FDF742FE3088001B30802846F3
:10501000BDE8F09F0020FBE7606870B9D9F8040094
:10502000844206D008A340F2AB2227A11CA0FDF7C2
:105030002DFE0021204600F035FA584605F084FC8C
:10504000E8E70000800100202E2E2F4D6964646C7B
:105050006577617265732F54686972645F5061721D
:1050600074792F4C7749502F7372632F636F726579
:105070002F697076342F6970345F667261672E63B2
:105080000000000069705F72656173735F70627524
:1050900066636F756E74203E3D20636C656E000024
:1050A000417373657274696F6E20222573222066C6
:1050B00061696C6564206174206C696E652025648B
:1050C00020696E2025730A006E6F74206669727302
:1050D00074616C74686F756768206A757374206595
:1050E0006E7175657565640070B50146144813E00E
:1050F00090F82D20D3070FD053070DD543685BB12F
:1051000084680D68234005EA04069E4216D0920783
:1051100002D4C268954211D000680028E8D109483D
:10512000006850B190F82D20D30706D0520704D55F
:10513000426812B109787F2900D1002070BD0000BB
:10514000180100201C0100201022014900F002B8C3
:10515000DC1401202DE9FC430023006889466C46DD
:105160001E464FF00A0C01AD0090002094F800801C
:10517000B8FBFCF70CFB1787B8FBFCF884F8008041
:1051800030372F54401CC0B2B8F1000FEED106E00A
:105190001F465B1C974209DA2F5C01F8017B401E19
:1051A000C0B2F5D218465B1C904202DB0020BDE87D
:1051B000FC832E20761CF6B2641C01F8010B042E31
:1051C000D3D3002001F8010C4846F0E710B50400E5
:1051D00006D106A34FF4317213A116A0FDF756FDB8
:1051E0002146BDE81040052002F092BE2E2E2F4D24
:1051F0006964646C6577617265732F546869726461
:105200005F50617274792F4C7749502F7372632FFE
:10521000636F72652F697076342F6970345F6672C0
:1052200061672E63000000007020213D204E554C28
:105230004C000000417373657274696F6E20222503
:105240007322206661696C6564206174206C696EEC
:105250006520256420696E2025730A002DE9F05F22
:105260004C68064693460F4600254FF001086088BB
:1052700000F010FE21784FF0FF3A0907890E8142B5
:1052800031D8A0EB0109E08800F004FEC0047C687E
:10529000010C0020206001EB090083B2A180E380B3
:1052A0008B4220D3726829E05068B0F804C0614591
:1052B00015D222606DB1B5F806C0614513D3808860
:1052C000834210D82F60A088844506D04FF0000894
:1052D00003E08088834206D877608AB12EE002D04E
:1052E000C288914202D25046BDE8F09F25B1EA88BB
:1052F000624501D04FF0000802680546002AD3D16C
:1053000095B1E888A188884206D92AA34FF4DB72B8
:1053100037A13FA0FDF7BAFC2F60E888A18888423A
:105320000CD04FF0000809E0706830B121A34FF4B1
:10533000DF7241A136A0FDF7A9FC7760BBF1000F39
:1053400002D1B07FC007CFD0B8F1000F30D0726863
:10535000002A2DD050688088002829D12168204655
:1053600029B14C68C088A1888842F7D020E0B8F104
:10537000000F1DD032B90FA340F2DF123CA124A0D0
:10538000FDF784FC70684068A04206D109A34FF481
:10539000F07237A11EA0FDF779FC206830B105A39B
:1053A0004FF4F17236A11AA0FDF770FC01209BE7C3
:1053B000002099E72E2E2F4D6964646C6577617229
:1053C00065732F54686972645F50617274792F4CF1
:1053D0007749502F7372632F636F72652F697076F0
:1053E000342F6970345F667261672E6300000000BD
:1053F000636865636B20667261676D656E747320A8
:10540000646F6E2774206F7665726C6170000000A7
:10541000417373657274696F6E2022257322206652
:1054200061696C6564206174206C696E6520256417
:1054300020696E2025730A006E6F20707265766990
:105440006F757320667261676D656E742C20746869
:105450006973206D757374206265207468652066B9
:105460006972737420667261676D656E74210000E5
:1054700073616E69747920636865636B0000000076
:1054800076616C69646174655F646174616772619F
:105490006D3A6E6578745F70627566213D4E554C4D
:1054A0004C00000070B504460C480D464168A1420E
:1054B00002D1216841600AE0002D06D108A340F224
:1054C000451216A11CA0FDF7E1FB206828602146CB
:1054D000BDE87040042002F01BBD000080010020E8
:1054E0002E2E2F4D6964646C6577617265732F543D
:1054F000686972645F50617274792F4C7749502FDC
:105500007372632F636F72652F697076342F6970C1
:10551000345F667261672E630000000073616E691C
:10552000747920636865636B206C696E6B656420B9
:105530006C69737400000000417373657274696F65
:105540006E2022257322206661696C656420617477
:10555000206C696E6520256420696E2025730A0021
:105560002DE9F047054600240F46A94205D12FA397
:10557000AB223DA13FA0FDF789FB002F08D0386882
:10558000A84205D029A3AD2244A13AA0FDF77EFB95
:105590006E684FF480387068818800291AD10068DD
:1055A0006860142205F108017068FAF7C3FE012152
:1055B0003046FFF76DF9304604F0F3FF04464045EE
:1055C00005D31AA3BC223AA12AA0FDF75FFB3046FF
:1055D00005F0BAF96E6812E07068B1460668484690
:1055E00004F0DFFF0444444505D310A3CC2230A1CE
:1055F00020A0FDF74BFBA4B2484605F0A5F9002E0C
:10560000EAD139462846FFF74DFF314D2888A042A0
:1056100005D206A3D2222FA116A0FDF737FB2888BA
:10562000001B28802046BDE8F08700002E2E2F4D5D
:105630006964646C6577617265732F54686972641C
:105640005F50617274792F4C7749502F7372632FBA
:10565000636F72652F697076342F6970345F66727C
:1056600061672E63000000007072657620213D2086
:1056700069707200417373657274696F6E202225C0
:105680007322206661696C6564206174206C696EA8
:105690006520256420696E2025730A007072657686
:1056A0002D3E6E657874203D3D20697072000000CB
:1056B00070627566735F6672656564202B20636C2B
:1056C000656E203C3D20307866666666000000000E
:1056D0008001002069705F72656173735F7062752D
:1056E00066636F756E74203E3D2070627566735FF1
:1056F00066726565640000002DE9F0471D4F89461C
:10570000064600240022134611461546786822E01A
:10571000D0F814C0D6F80C80C4450BD1D0F818C00E
:10572000D6F81080C44505D1B0F80CC0B6F8048096
:10573000C44509D06D1C2AB190F81FC092F81F8093
:10574000C44501D802461946D0F800C0BCF1000F8C
:1057500000D0034660460028DAD11AB11046FFF7A0
:10576000FFFE04444C4501DA012DCBDC2046BDE8A8
:10577000F08700008001002070B5094800254468CA
:105780000BE0E07F20B1401EE0772546246804E06E
:10579000204624682946FFF7E3FE002CF1D170BDB6
:1057A0008001002010B5040006D108A340F2CE22EB
:1057B00015A118A0FDF76AFA606908B105F0C4F8F0
:1057C0002046BDE81040FFF701BD00002E2E2F4DF2
:1057D0006964646C6577617265732F54686972647B
:1057E0005F50617274792F4C7749502F7372632F19
:1057F000636F72652F697076342F6970345F6672DB
:1058000061672E630000000070637220213D204E0E
:10581000554C4C00417373657274696F6E2022257C
:105820007322206661696C6564206174206C696E06
:105830006520256420696E2025730A0030B58DB07F
:105840000446464D002044490090296001218A0306
:10585000C5E90112CA02EA6028828DF82800802278
:105860008DF82920E1228DF82A208DF82C008DF862
:105870002B008DF82D000AAA6A61C5E90610C8053B
:1058800028622846FBF744FB28B994F82D0040F025
:10589000040084F82D000423314A32492F48FBF7D5
:1058A00079FA304A04238032A2F580712B48FBF745
:1058B00037FA062084F82C0068690121002200785C
:1058C00084F826006869407884F827006869807841
:1058D00084F828006869C07884F82900686900792C
:1058E00084F82A006869407984F82B0040F2DC5083
:1058F000A08494F82D0040F00A0084F82D0008469A
:1059000004F0C6FA18490860242101A8FAF739FD05
:1059100016A001904FF4AF7006903020079001AAB6
:105920002146144804F044FB0C48FBF7B3FC6A46DC
:105930001D210A48FBF766FC00981D2140F00B0270
:1059400006480092FBF7B0FD6A461D210348FBF7AD
:1059500059FC0DB030BD0000008002403033002003
:10596000601B0020100300200C00002045746849D3
:1059700066000000594200082DE9F84F0020044657
:1059800000902C48FBF743FA10B10020BDE8F88FD7
:105990002848818FD0F840900904090C2FD04FF48B
:1059A000C172002004F0BAFB009040B32148009D72
:1059B00040F2F45BD0F830806E89002710E000BF21
:1059C000A4F2F4525242FAF7B5FCD8F80C00804623
:1059D000D0F808903F1BAAF2F456002407F2F457BF
:1059E000686806EB040ADA4509EB04013844E7D895
:1059F0003246FAF79FFC2D683444002DDCD10D4867
:105A00000022016B05E00B6843F000430B60C9689E
:105A1000521C836B9342F6D800218163006800F525
:105A200080504269120602D580224261816000984E
:105A3000ACE70000303300202DE9F05F27480D4629
:105A4000C66A002083460446D6F808A031E03068D4
:105A500000280CDB6F894FF0000818E0A4F2F45224
:105A60005242FAF767FCF6683068002802DA6FF0F5
:105A7000070025E0D6F808A0A8EB040000F2F458CF
:105A8000ABEB0400A9F2F45700F2F45B002407EB3F
:105A9000040940F2F451894569680AEB0400414465
:105AA000DCD83A46FAF746FC0BEB07002D683C447D
:105AB0008346002DCBD101460848FBF76FFC002040
:105AC0000649096801F580514A69920603D52022EA
:105AD0004A6100224A60BDE8F09F00003033002098
